:020000040800F2
:1000000018040020E50F00083B0D00083D0D000816
:1000100000000000000000000000000000000000E0
:100020000000000000000000000000003F0D00087C
:100030000000000000000000410D0008430D000812
:10004000470F0008AB0F0008B70F000801100008A9
:1000500003100008AD050008190600089D060008F9
:100060000510000807100008091000080B10000810
:100070000D1000080F1000081110000813100008E0
:1000800015100008171000080000000019100008E3
:100090001B1000081D1000081F1000082110000888
:1000A0002310000825100008271000082910000858
:1000B0002B100008000000002D10000800000000B8
:1000C0000100481E0029FBD170471CB501214804DE
:1000D00000F06EFDE02000906846012101710321CF
:1000E0004171002181710221C1719024E4056946AA
:1000F000200000F06BFDE021200000F0ACFD13BDFE
:10010000000000007EB50C00694600BF26A268CA48
:1001100068C16D460A2100F0B6FD685C002C02D073
:1001200043065B0E01E08023034300210A00080020
:100130001C00E40700D50822042402251E002E42DC
:1001400000D02243264202D014002A002243102469
:100150001D002D0700D522432025264200D02A432A
:100160001C002C4202D014008022224340241D0097
:10017000254202D0150022002A431B0605D5130094
:1001800001221A4301E04000491CC9B20B00082BB0
:1001900007DAD40702D50400012020435208072BB8
:1001A000F1DBC0B27EBD0000C0F9A4B0999282F824
:1001B00080907F00F0B583B00C0001A9BEA2136847
:1001C0000B6001AF002805D1FF2038707870B8703F
:1001D000F8703AE10A25FA26B600B548844235D2CD
:1001E000012100912000310000F050FD290000F0B5
:1001F0004DFD08000121C0B2FFF784FF38700021D7
:100200000E002000642100F041FD290000F03EFDB9
:1002100008003100C0B2FFF775FF78702000290098
:1002200000F034FD290000F031FD08003100C0B2BB
:10023000FFF768FFB8702000290000F027FD0800D4
:100240003100C0B2FFF75EFFF870FEE099488442CB
:100250003BD2641D002100912000954900F016FD5D
:10026000290000F013FD08000021C0B2FFF74AFF8B
:100270003870012100912000310000F007FD2900B5
:1002800000F004FD08000121C0B2FFF73BFF7870C9
:1002900000210E002000642100F0F8FC290000F08D
:1002A000F5FC08003100C0B2FFF72CFFB870200049
:1002B000290000F0EBFC290000F0E8FC0800310008
:1002C000C0B2FFF71FFFF870BFE0D14884423DD2B3
:1002D0003234002100912000CE4900F0D7FC2900E3
:1002E00000F0D4FC08000021C0B2FFF70BFF38700B
:1002F0000021009120006E4900F0C8FC290000F0A8
:10030000C5FC08000021C0B2FFF7FCFE7870012197
:1003100000912000310000F0B9FC290000F0B6FC8B
:1003200008000121C0B2FFF7EDFEB87000210E00F9
:100330002000642100F0AAFC290000F0A7FC0800BE
:100340003100C0B2FFF7DEFEF8707EE0D14AD2483D
:1003500084423ED270082418002100912000110030
:1003600000F094FC290000F091FC08000021C0B2CC
:10037000FFF7C8FE3870002100912000A54900F069
:1003800085FC290000F082FC08000021C0B2FFF7C4
:10039000B9FE7870002100912000454900F076FCFC
:1003A000290000F073FC08000021C0B2FFF7AAFE8C
:1003B000B870002100912000310000F067FC290096
:1003C00000F064FC08000021C0B2FFF79BFEF8704B
:1003D0003BE0002100912000110000F057FC2900B3
:1003E00000F054FC08000021C0B2FFF78BFE38700B
:1003F000002100912000874900F048FC290000F00E
:1004000045FC08000021C0B2FFF77CFE7870002197
:1004100000912000264900F039FC290000F036FC4C
:1004200008000021C0B2FFF76DFEB87000210091F6
:100430002000310000F02AFC290000F027FC080011
:100440000021C0B2FFF75EFEF8709026F605E021AD
:10045000300000F000FC002400E0641C042C19DAD9
:1004600000250CE02021300000F0F5FB8021300059
:1004700000F0EFFB8021300000F0EDFB6D1C082D3B
:10048000EBDA385D2841C007ECD52021300000F0C0
:10049000E0FBEBE74021300000F0DBFB40213000C7
:1004A00000F0D9FBE021300000F0D5FBF7BD0000E3
:1004B000102700009B860100FFFFFFFFF0B585B00D
:1004C0000121480400F074FB1F200390002403A8BE
:1004D00004710221417101252900C171847103A9B0
:1004E0009020C00500F072FB2146084600F02AFC6F
:1004F0002946204600F026FC0221204600F022FC7E
:100500000321204600F01EFC0421204600F01AFCC6
:1005100000956E4634710C2070712800B0716846E9
:1005200000F028FC02200090347110273800707110
:100530002800B071684600F01DFC04200090347162
:100540000C2070712800B071684600F013FC082080
:10055000009034710C2070712800B071684600F072
:1005600009FC0097347177712800B071684600F07B
:1005700001FC02AC05202070022060702800A070F1
:1005800002A800F03BFC06202070022060702800CA
:10059000A07002A800F032FC0720207002206070DA
:1005A000A57002A800F02AFC05B0F0BD38B5012006
:1005B00000F015FC01281ED1012000F018FCD44CDD
:1005C0002078002822D10120207065680221902027
:1005D000C00500F037FB0028A06805D02818CD49D9
:1005E000884206D3080004E0A84201D2281A00E09D
:1005F0000020606031BD022000F0F1FB012805D130
:10060000022000F0F4FB0020C149087031BD000059
:100610000E420F00A086010010B5042000F0DFFBA1
:10062000012811D1042000F0E2FBB94CA068012898
:1006300002D10A20A06010BD0A2802D16420A06067
:1006400010BD0120A06010BD082000F0C8FB0128EB
:100650001FD1082000F0CBFBAD4C6078002818D1EA
:100660000120607010219020C00500F0EBFA0028F6
:10067000E06807D13F2802D33F20E06010BD401C56
:10068000E06010BD152802D3401EE06010BD1420AC
:10069000E06010BD40420F008C94980080B510209F
:1006A00000F09DFB012805D1102000F0A0FB0020E8
:1006B0009749487001BD7047F0B583B001214804E7
:1006C00000F076FA0121880400F072FA80208000A0
:1006D00000906C4601252571022738006071E57194
:1006E0000026A67169469020C00500F06FFAA802A6
:1006F0000090267138006071E571A67169469020FE
:10070000C00500F063FA009725716771E571A67165
:10071000964C6946200000F059FA3946200000F056
:100720009AFA6420FFF7CCFC3946200000F091FAD9
:100730006420FFF7C5FCF7BD00B583B08020C00082
:10074000009000206946087102224A710122CA7194
:1007500088719020C00500F039FA07BD00B583B05C
:100760008020C000009001206946087102224A7171
:10077000C871002088719020C00500F027FA07BDDD
:1007800080B58021C9009020C00500F05BFA401EB2
:100790008041C043C00F02BD70B5FFF7DFFF90245A
:1007A000E4058026F6003100200000F052FAFFF741
:1007B00082FF75082900200000F04BFAFFF77BFF4D
:1007C0003100200000F047FAFFF775FF29002000F4
:1007D00000F041FAFFF76FFF70BD70B5FFF7BEFF85
:1007E0009024E4058026B6003100200000F033FAA2
:1007F00075002900200000F02EFAFFF75CFF3100A1
:10080000200000F026FAFFF756FF2900200000F034
:1008100020FAFFF750FF70BDF8B50700FFF79EFF05
:1008200000249025ED058026B60011E0280000F098
:1008300012FAFFF740FF3100280000F00AFAFFF734
:100840003AFF3100280000F006FAFFF734FF641C7D
:10085000082C0BD2710007202200801A3A000241B6
:10086000D007E3D5280000F0F4F9E2E7F1BDF8B5D0
:100870000700FFF761FF00249025ED058026B600F4
:1008800019E0FFF718FF3100280000F0E2F9FFF748
:1008900012FF387840003870FFF772FF002803D04D
:1008A00038780121014339703100280000F0D3F974
:1008B000FFF701FF641C082CE3D3F1BD70B5FFF70F
:1008C0003BFF9025ED058021C900280000F0C1F90B
:1008D000FFF7F1FE8024A4002100280000F0B9F900
:1008E0000026FFF74DFF002809D0FFF7E4FE761C35
:1008F000A7488642F5D3FFF770FF002070BD2100A6
:10090000280000F0A8F9FFF7D6FE012070BD000016
:10091000000000206F37000070B5FFF70DFF902535
:10092000ED058021C900280000F095F9FFF7C3FE0E
:100930008024A4002100280000F08BF90026FFF796
:100940001FFF002809D1FFF7B6FE761C90488642AB
:10095000F5D3FFF742FF002070BD2100280000F012
:100960007AF9FFF7A8FE012070BD000000040048DE
:1009700038B505000C00FFF70FFF2020FFF74CFFF4
:10098000FFF79CFF002801D1002032BD2800FFF7AF
:1009900043FFFFF793FF002801D1002032BDFFF78E
:1009A0001CFFFFF7F9FE2120FFF736FFFFF786FF58
:1009B000002801D1002032BD2000FFF758FFFFF7CB
:1009C000ABFF002801D1002032BDFFF706FF012058
:1009D00032BD38B505000C00FFF7DEFE2020FFF722
:1009E0001BFFFFF76BFF002801D1002032BD28005C
:1009F000FFF712FFFFF762FF002801D1002032BD90
:100A00002000FFF709FFFFF759FF002801D1002060
:100A100032BDFFF7E2FE012032BD80B5FFF74CFE8C
:100A200088210020FFF7D5FF10210120FFF7D1FF1B
:100A300000210220FFF7CDFF01210620FFF7C9FFAB
:100A40000E210920FFF7C5FF01BD80B56946800072
:100A5000087068460078FD220240012111430620FB
:100A6000FFF7B7FF01BD30B583B005000C002800CB
:100A700004D0C8210020FFF7ACFF03E0882100204C
:100A8000FFF7A7FF6846210AC906C90E01700220B8
:100A9000FFF79FFF2100C9B20320FFF79AFF08204C
:100AA00069460870002D01D048200870684600781B
:100AB000A02101430020FFF78CFF0024012501A99C
:100AC0001420FFF755FF6846007980092900084285
:100AD00001D008463EBDFA208000FFF7F1FA641C01
:100AE000072CECD32B48857000203EBD80B52948EB
:100AF000C068FFF7AAFF01BD10B526484168264827
:100B0000814205D2880044180020FFF7ACFF11E0B5
:100B10002248814209D219204843214A8418214899
:100B200009180120FFF79FFF04E01F4C1F49012017
:100B3000FFF799FF21000120FFF73CFB10BD10B526
:100B400000F088F9FFF7C1FAFFF7B8FCFFF765FF7F
:100B5000FFF7CCFFFFF7D0FF0E4CE06861698142E0
:100B600002D06061FFF7C2FF60682169814202D054
:100B70002061FFF7C1FFA0780028EED00020A07010
:100B8000FFF74BFFFFF7B2FFFFF7B6FFE5E7000007
:100B900001100000000000207017000070370000F6
:100BA000402BFEFF90E8FFFF17950300FF1F00009A
:100BB000054A0029116802D008431060704781433C
:100BC00011607047000000001410024070B4002251
:100BD00034E0012393400C681C409C422DD10C79D9
:100BE000012C01D0022C13D1140064008568032667
:100BF000A640B543856085684E79A6402E43866041
:100C000084889C43848083888C7994401C438480AE
:100C100013005C000325A540EB4305681D400560FB
:100C200005680E79A6402E430660C5682B40C36058
:100C3000C368CD79A5401D43C560521C102AC8D396
:100C400070BC704702000020128A0A4200D00120C6
:100C500070478161704701857047F446002804D4CD
:100C6000494200F013F8404260474042002905D451
:100C70005FD000F00BF8404249426047494200F023
:100C800005F84942604703460B43E6D40022030AB5
:100C90008B420BD203098B4219D243088B422ED2CE
:100CA000411A00D20146524110467047FF22090204
:100CB0003FD012068B4205D3121209028B4201D398
:100CC0001212090203098B4219D300E0090AC30971
:100CD0008B4201D3CB01C01A524183098B4201D30D
:100CE0008B01C01A524143098B4201D34B01C01AF8
:100CF000524103098B4201D30B01C01A5241C30870
:100D00008B4201D3CB00C01A524183088B4201D3DE
:100D10008B00C01A524143088B4201D34B00C01ACA
:100D20005241884200D3401A5241CFD20146104668
:100D3000704708B500F0EEF808BD7047FEE7704751
:100D40007047704710B40200094B08000324A04309
:100D500018188B000C21194003680F248C40A34302
:100D6000036003688A401A43026010BC70470000A9
:100D70000800014030B40168CC431E498279002A42
:100D800026D00A4613681C40146053680468A343C5
:100D9000536003795B181C68056825431D609368E0
:100DA0000468A3439360D3680468A343D360437982
:100DB0000468102B07D191680C439460D1680068D7
:100DC0000843D06009E05B18186804431C6004E025
:100DD00000794318186804401C6030BC704701005B
:100DE0000020054A1268114000D0012070470249D6
:100DF00008607047000401401404014070B4010011
:100E00000C781F2201238878002817D00E4D20006F
:100E10000326B04328180568E60018243440FF264E
:100E2000A640B5434E78B601F6B2A6402E43066002
:100E30000878024093400548036003E02240934055
:100E40000348036070BC704700E400E000E100E08C
:100E500080E100E080B52848016801220A43026071
:100E60004168264A0A4042600168254A0A400260F9
:100E70000168244A0A4002604168234A0A404260ED
:100E8000C16A0F229143C162016B204A0A4002638A
:100E9000416B0122914341630021816000F001F820
:100EA00001BD81B000200090009011201849086019
:100EB000114841684160416841604168124A0A40F6
:100EC0004260416841600168802252040A43026026
:100ED00001688901FCD54168032291434160416862
:100EE00002220A43426041680C220A40082AFAD1D1
:100EF00001B0704700000000001002400CB8FFF87D
:100F0000FFFFF6FEFFFFFBFFFFFFC0FFACFEFFFF92
:100F100000200240704730B401210268001D002A01
:100F20000FD00368C318446808300C4202D04D4605
:100F30006D1E64191D6825601B1D241D121FECD039
:100F4000F8E730BC7047FEE710B50749794418311F
:100F5000064C7C44163404E0081D0A68891888474A
:100F60000100A142F8D110BD0800000018000000E7
:100F7000A7FFFFFF18000000540000000000002041
:100F80000000000000F00BF8002801D0FFF7DCFFA4
:100F90000020C046C046FFF7D2FD00F002F8012055
:100FA000704780B500F002F801BDFEE707463846FD
:100FB00000F002F8FBE7FEE780B5C046C046024AF3
:100FC00011001820ABBEFBE7260002000000000065
:100FD000D020000001000000180000000000000008
:100FE000000000000148804701480047550E0008F6
:100FF000F50F0008C046C046C046C046FFF7C2FF16
:10100000FEE7FEE7FEE7FEE7FEE7FEE7FEE7FEE7B8
:10101000FEE7FEE7FEE7FEE7FEE7FEE7FEE7FEE7A8
:0E102000FEE7FEE7FEE7FEE7FEE7FEE7FEE77F
:0400000508000FF5EB
:00000001FF
