:020000040800F2
:1000000040040020011600081D1600081F160008F5
:1000100000000000000000000000000000000000E0
:100020000000000000000000000000002116000891
:100030000000000000000000231600083301000843
:10004000CB0600082B140008DF150008EB1500088C
:100050002516000881020008EB020008770300085B
:1000600027160008291600082B1600082D16000870
:100070002F16000831160008331600083516000840
:100080003716000839160008000000003B1600086B
:100090003D1600083F1600084116000843160008E8
:1000A0004516000847160008491600084B160008B8
:1000B0004D160008000000004F1600080000000068
:1000C00010B4C20018231340FF249C40E24389016E
:1000D000C9B2994003000BD5C3481B071B0F083B4F
:1000E0009B089B00C01803681A401143016007E099
:1000F000BE489B089B00C01803681A40114301606A
:1001000010BC704710B580214904884201D30120FA
:1001100010BDB74C0002000A401E606003210020A1
:10012000C043FFF7CDFF0020A06007202060002023
:1001300010BD10B5AF4C206A002801D10121E1713A
:10014000401CFA21890000F014FA2162606A00283C
:1001500001D10121A171401C642100F00AFA616201
:10016000A06A002801D101216171401C0A2100F020
:1001700000FAA162E06A002804D101210A00A270FD
:10018000E2702171401C322100F0F3F9E16210BDF0
:10019000F0B585B00121480400F042FA1F20039019
:1001A000002403A804710221417101252900C171B5
:1001B000847103A99020C00500F040FA214608464A
:1001C00000F084FA2946204600F080FA02212046F9
:1001D00000F07CFA0321204600F078FA0421204642
:1001E00000F074FA00956E4634710C20707128008E
:1001F000B071684600F082FA022000903471102736
:10020000380070712800B071684600F077FA042059
:10021000009034710C2070712800B071684600F0B5
:100220006DFA0820009034710C2070712800B071B4
:10023000684600F063FA0097347177712800B07156
:10024000684600F05BFA02AC052020700220607066
:100250002800A07002A800F095FA06202070022065
:1002600060702800A07002A800F08CFA07202070AF
:1002700002206070A57002A800F084FA05B0F0BDFD
:1002800038B5012000F06FFA012822D1012000F0DA
:1002900072FAA44C2078002826D101202070E07842
:1002A000002821D00020E070A56802219020C00520
:1002B00000F000FA0028E06805D028189A49884222
:1002C00005DB080003E0281A282800DA2820A060AF
:1002D00031BD022000F047FA012805D1022000F0CC
:1002E0004AFA00208F49087031BD10B5042000F093
:1002F0003AFA012816D1042000F03DFA894C207901
:10030000002837D000202071E068012802D10A209F
:10031000E06010BD0A2802D16420E06010BD012019
:10032000E06010BD082000F01EFA012822D108204C
:1003300000F021FA7B4C607800281BD1012060700E
:10034000A078002816D00020A07010219020C005B1
:1003500000F0B0F90028206906D1801C20613E28F9
:1003600008DB3E20206110BD801E2061142801DAC8
:100370001420206110BD80B5102000F0F4F9012890
:1003800005D1102000F0F7F900206649487001BD42
:1003900080B56448006900F0F8FB01BD10B5154850
:1003A0008168FA204001814205DA88004418002063
:1003B00000F0F9FB12E05C4A91420ADA5B48091A44
:1003C00089B2192048435A4A8418012000F0EBFBF7
:1003D00004E0584C0100012000F0E5FB2100012061
:1003E00000F0A2FC10BD00001CED00E000E400E005
:1003F00010E000E00000002038B572B600F020FEEA
:10040000FA208000FFF77EFE0420C04300F0E0F9F0
:1004100000F016FCFFF7BCFE00F09CFE414C00F023
:10042000FAFE002813D0444D042229002000083091
:1004300000F0CCFF0422291D20000C3000F0C6FF84
:100440000422290008312000103000F0BFFFA0680E
:100450003A49884201DB481EA060A068282801DADA
:100460002820A060E068012805D00A2803D064286D
:1004700001D00120E0602069142801DA14202061F5
:1004800020693F2801DB3E20206100F066FBFFF77A
:100490007FFFFFF783FF62B6274D32E0E061E0693E
:1004A000782816D17920E061042221000831280043
:1004B00000F08CFF042221000C31281D00F086FF83
:1004C0000422210010312800083000F07FFF00F0E6
:1004D00041FF2069A169814202D0A061FFF758FF66
:1004E000A0686169814202D06061FFF757FF00F0A8
:1004F0009DFB002805D000F030FBFFF749FFFFF718
:100500004DFFA0790028FCD000200100A171616995
:10051000A2689142C2D1E0697928C0DA401CE0614A
:10052000BDE7000000000020F03C0000B01D00000E
:10053000307500007082030030000020F13C0000A4
:10054000F446002804D4494200F013F840426047C2
:100550004042002905D45FD000F00BF840424942E8
:100560006047494200F005F84942604703460B43A3
:10057000E6D40022030A8B420BD203098B4219D224
:1005800043088B422ED2411A00D2014652411046F6
:100590007047FF2209023FD012068B4205D3121288
:1005A00009028B4201D31212090203098B4219D3AB
:1005B00000E0090AC3098B4201D3CB01C01A5241A2
:1005C00083098B4201D38B01C01A524143098B42EC
:1005D00001D34B01C01A524103098B4201D30B01D5
:1005E000C01A5241C3088B4201D3CB00C01A5241FA
:1005F00083088B4201D38B00C01A524143088B42BF
:1006000001D34B00C01A5241884200D3401A5241D4
:10061000CFD201461046704708B500F005FF08BD6F
:10062000054A0029116802D00843106070478143D1
:1006300011607047000000001410024070B40022E6
:1006400034E0012393400C681C409C422DD10C796E
:10065000012C01D0022C13D11400640085680326FC
:10066000A640B543856085684E79A6402E438660D6
:1006700084889C43848083888C7994401C43848044
:1006800013005C000325A540EB4305681D40056091
:1006900005680E79A6402E430660C5682B40C360EE
:1006A000C368CD79A5401D43C560521C102AC8D32C
:1006B00070BC704702000020128A0A4200D001205C
:1006C00070478161704701857047FEE710B40200F2
:1006D000094B08000324A04318188B000C21194073
:1006E00003680F248C40A343036003688A401A43C5
:1006F000026010BC704700000800014030B401687F
:10070000CC431E498279002A26D00A4613681C4031
:10071000146053680468A343536003795B181C6832
:10072000056825431D6093680468A3439360D368FC
:100730000468A343D36043790468102B07D1916800
:100740000C439460D16800680843D06009E05B18EE
:10075000186804431C6004E00079431818680440DA
:100760001C6030BC704701000020054A126811402F
:1007700000D0012070470249086070470004014022
:100780001404014070B401000C781F220123887802
:10079000002817D0144D20000326B0432818056800
:1007A000E60018243440FF26A640B5434E78B60133
:1007B000F6B2A6402E4306600878024093400B48EC
:1007C000036003E0224093400948036070BC704717
:1007D00008490428086803D1042202430A607047CC
:1007E000042290430860704700E400E000E100E06C
:1007F00080E100E010E000E070470100481E0029A1
:10080000FBD17047F0B583B001214804FFF708FF22
:1008100001218804FFF704FF8020800000906C46CF
:1008200001252571022738006071E5710026A67147
:1008300069469020C005FFF701FFA80200902671CD
:1008400038006071E571A67169469020C005FFF718
:10085000F5FE009725716771E571A671934C6946A5
:100860002000FFF7EBFE39462000FFF72CFF642045
:10087000FFF7C3FF39462000FFF723FF6420FFF78F
:10088000BCFFF7BD00B583B08020C0000090002001
:100890006946087102224A710122CA71887190204A
:1008A000C005FFF7CBFE07BD00B583B08020C000B8
:1008B000009001206946087102224A71C871002027
:1008C00088719020C005FFF7B9FE07BD80B5802173
:1008D000C9009020C005FFF7EDFE401E8041C043D7
:1008E000C00F02BD70B5FFF7DFFF9024E40580263E
:1008F000F60031002000FFF7E4FEFFF77DFF7508EA
:1009000029002000FFF7DDFEFFF776FF3100200011
:10091000FFF7D9FEFFF770FF29002000FFF7D3FE95
:10092000FFF76AFF70BD70B5FFF7BEFF9024E405C6
:100930008026B60031002000FFF7C5FE75002900B3
:100940002000FFF7C0FEFFF757FF31002000FFF740
:10095000B8FEFFF751FF29002000FFF7B2FEFFF7B6
:100960004BFF70BDF8B50700FFF79EFF00249025F0
:10097000ED058026B60011E02800FFF7A4FEFFF782
:100980003BFF31002800FFF79CFEFFF735FF3100E9
:100990002800FFF798FEFFF72FFF641C082C0BD2EE
:1009A000710007202200801A3A000241D007E3D5E7
:1009B0002800FFF786FEE2E7F1BDF8B50700FFF774
:1009C00061FF00249025ED058026B60019E0FFF7B1
:1009D00013FF31002800FFF774FEFFF70DFF387892
:1009E00040003870FFF772FF002803D038780121EB
:1009F0000143397031002800FFF765FEFFF7FCFE68
:100A0000641C082CE3D3F1BD70B5FFF73BFF9025C4
:100A1000ED058021C9002800FFF753FEFFF7ECFE2B
:100A20008024A40021002800FFF74BFE0026FFF7DA
:100A30004DFF002809D0FFF7DFFE761C7E48864276
:100A4000F5D3FFF770FF002070BD21002800FFF7ED
:100A50003AFEFFF7D1FE012070BD70B5FFF712FF1F
:100A60009025ED058021C9002800FFF72CFEFFF737
:100A7000C3FE8024A40021002800FFF722FE0026E8
:100A8000FFF724FF002809D1FFF7B6FE761C6A485D
:100A90008642F5D3FFF747FF002070BD21002800F4
:100AA000FFF711FEFFF7A8FE012070BD000400480B
:100AB00038B505000C00FFF715FF2020FFF752FFA7
:100AC000FFF7A2FF002801D1002032BD2800FFF768
:100AD00049FFFFF799FF002801D1002032BDFFF741
:100AE00022FFFFF7FFFE2120FFF73CFFFFF78CFFFF
:100AF000002801D1002032BD2000FFF75EFFFFF784
:100B0000ACFF002801D1002032BDFFF70CFF01200F
:100B100032BD38B505000C00FFF7E4FE2020FFF7DA
:100B200021FFFFF771FF002801D1002032BD28000E
:100B3000FFF718FFFFF768FF002801D1002032BD42
:100B40002000FFF70FFFFFF75FFF002801D1002013
:100B500032BDFFF7E8FE012032BD80B5FFF752FE3F
:100B600088210020FFF7D5FF10210120FFF7D1FFDA
:100B700000210220FFF7CDFF01210620FFF7C9FF6A
:100B80000E210920FFF7C5FF01BD80B56946800031
:100B9000087068460078FD220240012111430620BA
:100BA000FFF7B7FF01BD30B583B005000C0028008A
:100BB00004D0C8210020FFF7ACFF03E0882100200B
:100BC000FFF7A7FF6846210AC906C90E0170022077
:100BD000FFF79FFF2100C9B20320FFF79AFF08200B
:100BE00069460870002D01D04820087068460078DA
:100BF000A02101430020FFF78CFF0024012501A95B
:100C00001420FFF755FF6846007980092900084243
:100C100001D008463EBDFA208000FFF7EEFD641CBF
:100C2000072CECD30548057000203EBD0349087829
:100C300000220A7070470000011000003C000020F4
:100C40001CB501214804FFF7EBFCE020009068464A
:100C50000121017103214171002181710221C171C2
:100C60009024E40569462000FFF7E8FCE02120001D
:100C7000FFF729FD13BD00007EB50C00694600BFDB
:100C800026A268CA68C16D460A21FFF76FFC685C3E
:100C9000002C02D043065B0E01E0802303430021B9
:100CA0000A0008001C00E40700D5082204240225DD
:100CB0001E002E4200D02243264202D014002A00F9
:100CC000224310241D002D0700D522432025264253
:100CD00000D02A431C002C4202D014008022224360
:100CE00040241D00254202D0150022002A431B0685
:100CF00005D5130001221A4301E04000491CC9B286
:100D00000B00082B07DAD40702D50400012020438A
:100D10005208072BF1DBC0B27EBD0000C0F9A4B0C1
:100D2000999282F880907F00F0B583B00C0001A901
:100D3000C2A213680B6001AF002805D1FF203870F4
:100D40007870B870F8703AE10A25FA26B600B5480E
:100D5000844235D20121009120003100FFF709FCC7
:100D60002900FFF706FC08000121C0B2FFF784FF4D
:100D7000387000210E0020006421FFF7FAFB2900E3
:100D8000FFF7F7FB08003100C0B2FFF775FF78707E
:100D900020002900FFF7EDFB2900FFF7EAFB080020
:100DA0003100C0B2FFF768FFB87020002900FFF7DC
:100DB000E0FB08003100C0B2FFF75EFFF870FEE014
:100DC000994884423BD2641D00210091200095493E
:100DD000FFF7CFFB2900FFF7CCFB08000021C0B2D2
:100DE000FFF74AFF38700121009120003100FFF722
:100DF000C0FB2900FFF7BDFB08000121C0B2FFF7CF
:100E00003BFF787000210E0020006421FFF7B1FB4A
:100E10002900FFF7AEFB08003100C0B2FFF72CFF3E
:100E2000B87020002900FFF7A4FB2900FFF7A1FB01
:100E300008003100C0B2FFF71FFFF870BFE07B4829
:100E400084423DD232340021009120007849FFF7DE
:100E500090FB2900FFF78DFB08000021C0B2FFF7CF
:100E60000BFF38700021009120006E49FFF781FBD5
:100E70002900FFF77EFB08000021C0B2FFF7FCFE4F
:100E800078700121009120003100FFF772FB2900EA
:100E9000FFF76FFB08000121C0B2FFF7EDFEB8704D
:100EA00000210E0020006421FFF763FB2900FFF7FB
:100EB00060FB08003100C0B2FFF7DEFEF8707EE094
:100EC0005C4A5D4884423ED270082418002100919B
:100ED00020001100FFF74DFB2900FFF74AFB080037
:100EE0000021C0B2FFF7C8FE387000210091200039
:100EF0004F49FFF73EFB2900FFF73BFB08000021AD
:100F0000C0B2FFF7B9FE787000210091200045497A
:100F1000FFF72FFB2900FFF72CFB08000021C0B2D0
:100F2000FFF7AAFEB8700021009120003100FFF702
:100F300020FB2900FFF71DFB08000021C0B2FFF7CE
:100F40009BFEF8703BE00021009120001100FFF7AC
:100F500010FB2900FFF70DFB08000021C0B2FFF7CE
:100F60008BFE38700021009120003149FFF701FB12
:100F70002900FFF7FEFA08000021C0B2FFF77CFE4F
:100F800078700021009120002649FFF7F2FA29002D
:100F9000FFF7EFFA08000021C0B2FFF76DFEB8704E
:100FA0000021009120003100FFF7E3FA2900FFF74C
:100FB000E0FA08000021C0B2FFF75EFEF87090264C
:100FC000F605E0213000FFF77EFB002400E0641C02
:100FD000042C19DA00250CE020213000FFF773FB08
:100FE00080213000FFF76DFB80213000FFF76BFBA5
:100FF0006D1C082DEBDA385D2841C007ECD52021A7
:101000003000FFF75EFBEBE740213000FFF759FBB4
:1010100040213000FFF757FBE0213000FFF753FB82
:10102000F7BD0000102700009B8601000E420F0054
:10103000A086010040420F008C949800FFFFFFFF44
:1010400080B52848016801220A4302604168264AA7
:101050000A4042600168254A0A4002600168244A49
:101060000A4002604168234A0A404260C16A0F2276
:101070009143C162016B204A0A400263416B012225
:10108000914341630021816000F001F801BD81B00E
:101090000020009000901120184908601148416814
:1010A0004160416841604168124A0A4042604168BB
:1010B00041600168802252040A430260016889018C
:1010C000FCD54168032291434160416802220A43F2
:1010D000426041680C220A40082AFAD101B07047E8
:1010E00000000000001002400CB8FFF8FFFFF6FE01
:1010F000FFFFFBFFFFFFC0FFACFEFFFF0020024031
:101100000100AA48814200D3FEE7091D0420A84A35
:10111000914201D300027047FF22921C914201D3F9
:10112000C0017047812901D3FC307047412901D3A8
:1011300080207047212901D340207047112901D315
:1011400020207047092901D310207047052900D3BA
:1011500008207047002001000200964B01E05A541D
:10116000491C0C29FBD3704710B401210022130045
:1011700004E0C45CFF2C00D011005B1C0C2BF8D3E6
:10118000080010BC70470178AA2901D000207047E0
:101190004078552801D00020704701207047F8B5ED
:1011A0000C20FFF7ADFF060000252C0001E0012414
:1011B0006D1C802040013100FFF7DBF9854211D220
:1011C000300068437C4947183800FFF7CDFF0028FE
:1011D000EDD1200004D13800FFF7D5FF0028E7D17A
:1011E0000120F2BD0020F2BD10B50C20FFF788FFF2
:1011F0000400802040012100FFF7BBF9002800D146
:10120000FEE7401E44436C482018FFF7ADFF401E28
:101210008041C00F10BDF8B50C20FFF771FF04002E
:101220000027FF43002501E02F006D1C80204001B6
:101230002100FFF79EF985420FD2200068435E49E6
:1012400046183000FFF790FF002806D13000FFF766
:101250009AFF0028E8D10020F2BD002F01D5002020
:10126000F2BD0C227C4354482018011D514800F067
:10127000ADF80120F2BD80B500F0D8F8342000F0C0
:1012800021F94D4800F0E1F84C4800F0DEF84C48F8
:1012900000F0DBF84B4800F0D8F800F0D0F801BDC2
:1012A00038B5040000F0C2F8342000F00BF94649CC
:1012B000200000F0E5F800212000801C00F0E0F89C
:1012C000002510E068003B490A18117803005B1CF8
:1012D0000C2B03D20B005178090219432018001D72
:1012E00000F0CEF86D1C062DECD300F0A8F831BD4F
:1012F000F8B50C20FFF704FF04000027FF4300258A
:1013000001E02F006D1C802040012100FFF731F922
:1013100085420FD220006843274946183000FFF766
:1013200023FF002806D13000FFF72DFF0028E8D169
:101330000020F2BD002F01D50020F2BD0C227C431D
:101340001D482018011D1B4800F0E8F8401E804190
:10135000C00FF2BD70B5FFF7CBFF002825D1FFF716
:101360001EFF002801D0FFF786FFFFF73DFF002892
:1013700001D0FFF780FF0C20FFF7C2FE050000241C
:1013800000E0641C802040012900FFF7F2F884424D
:101390000BD228006043084946183000FFF7E4FEEE
:1013A0000028EED03000FFF77BFF70BDFD0300008A
:1013B0000102000030000020003000080034000866
:1013C00000380008003C0008AA550000124207D06F
:1013D0008B0706D00B78491C0370401C521EF7D8AF
:1013E0007047830706D00B78491C0370401C521EBF
:1013F000F9D1704770B4103A03D378C9103A78C065
:10140000FBD2530701D318C918C001D508C908C0B9
:10141000D20704D30B880380891C801C002A01D5C5
:101420000B78037070BC70477047FEE72048C168B6
:10143000090603D51F4901601F49016070471F4815
:10144000016880220A430260704770B50400B0252D
:101450002D03280000F052F8042810D1174E3068F0
:1014600002210143316074603068402101433160E2
:10147000280000F043F8316802229143316070BDCA
:10148000F8B507000C00B0252D03280000F036F851
:1014900004280CD10A4E30680121014331603C80A0
:1014A000280000F02BF83168012291433160F2BD31
:1014B0000420024023016745AB89EFCD1020024094
:1014C000102002400C4908607047000010B404214D
:1014D00008000122084B1C68144001D0100008E0ED
:1014E0001A68D20601D5022003E01A68114000D024
:1014F000032010BC704700000C20024010B504000F
:10150000FFF7E4FF02E0FFF7E1FF641E012801D1CD
:10151000002CF8D1002C00D1052010BD10B402E041
:10152000401C491C521E002A09D00B7804789C42AA
:10153000F6D002D20020C04302E0012000E00020EB
:1015400010BC704730B501684118446862088A18B9
:101550008368E40701D54C461B19914201D10C3038
:1015600030BD0C7864B2491C0D78491C1D705B1CA1
:10157000002C02D5641CF9D1EFE7641EF4D5ECE72A
:1015800010B5074979441831064C7C44163404E000
:10159000081D0A68891888470100A142F8D110BDCA
:1015A00008000000140000009DFFFFFFA4000000E1
:1015B000240000000000002000F00BF8002801D0FB
:1015C000FFF7DEFF0020C046C046FEF715FF00F023
:1015D00002F80120704780B500F002F801BDFEE777
:1015E0000746384600F002F8FBE7FEE780B5C04644
:1015F000C046024A11001820ABBEFBE726000200DD
:1016000001488047014800474110000811160008B2
:10161000C046C046C046C046FFF7CEFF7047FEE753
:1016200070477047FEE7FEE7FEE7FEE7FEE7FEE7EE
:10163000FEE7FEE7FEE7FEE7FEE7FEE7FEE7FEE782
:10164000FEE7FEE7FEE7FEE7FEE7FEE7FEE7FEE772
:10165000F800041027000001FD000018FD00F8FF4D
:02166000DF00A9
:0400000508001611C8
:00000001FF
